{
  "contractName": "Proposal",
  "abi": [
    {
      "inputs": [
        {
          "internalType": "string",
          "name": "_title",
          "type": "string"
        },
        {
          "internalType": "string",
          "name": "_description",
          "type": "string"
        }
      ],
      "stateMutability": "nonpayable",
      "type": "constructor"
    },
    {
      "inputs": [],
      "name": "creator",
      "outputs": [
        {
          "internalType": "address",
          "name": "",
          "type": "address"
        }
      ],
      "stateMutability": "view",
      "type": "function",
      "constant": true
    },
    {
      "inputs": [],
      "name": "description",
      "outputs": [
        {
          "internalType": "string",
          "name": "",
          "type": "string"
        }
      ],
      "stateMutability": "view",
      "type": "function",
      "constant": true
    },
    {
      "inputs": [],
      "name": "executed",
      "outputs": [
        {
          "internalType": "bool",
          "name": "",
          "type": "bool"
        }
      ],
      "stateMutability": "view",
      "type": "function",
      "constant": true
    },
    {
      "inputs": [
        {
          "internalType": "address",
          "name": "",
          "type": "address"
        }
      ],
      "name": "hasVoted",
      "outputs": [
        {
          "internalType": "bool",
          "name": "",
          "type": "bool"
        }
      ],
      "stateMutability": "view",
      "type": "function",
      "constant": true
    },
    {
      "inputs": [],
      "name": "noVotes",
      "outputs": [
        {
          "internalType": "uint256",
          "name": "",
          "type": "uint256"
        }
      ],
      "stateMutability": "view",
      "type": "function",
      "constant": true
    },
    {
      "inputs": [],
      "name": "title",
      "outputs": [
        {
          "internalType": "string",
          "name": "",
          "type": "string"
        }
      ],
      "stateMutability": "view",
      "type": "function",
      "constant": true
    },
    {
      "inputs": [],
      "name": "yesVotes",
      "outputs": [
        {
          "internalType": "uint256",
          "name": "",
          "type": "uint256"
        }
      ],
      "stateMutability": "view",
      "type": "function",
      "constant": true
    },
    {
      "inputs": [
        {
          "internalType": "bool",
          "name": "_voteYes",
          "type": "bool"
        }
      ],
      "name": "vote",
      "outputs": [],
      "stateMutability": "nonpayable",
      "type": "function"
    },
    {
      "inputs": [],
      "name": "executeProposal",
      "outputs": [],
      "stateMutability": "nonpayable",
      "type": "function"
    },
    {
      "inputs": [],
      "name": "getProposalData",
      "outputs": [
        {
          "internalType": "string",
          "name": "",
          "type": "string"
        },
        {
          "internalType": "string",
          "name": "",
          "type": "string"
        },
        {
          "internalType": "address",
          "name": "",
          "type": "address"
        },
        {
          "internalType": "bool",
          "name": "",
          "type": "bool"
        },
        {
          "internalType": "uint256",
          "name": "",
          "type": "uint256"
        },
        {
          "internalType": "uint256",
          "name": "",
          "type": "uint256"
        }
      ],
      "stateMutability": "view",
      "type": "function",
      "constant": true
    }
  ],
  "bytecode": "0x60806040523480156200001157600080fd5b50604051620010ec380380620010ec8339818101604052810190620000379190620003a8565b60008251116200007e576040517f08c379a000000000000000000000000000000000000000000000000000000000815260040162000075906200048e565b60405180910390fd5b6000815111620000c5576040517f08c379a0000000000000000000000000000000000000000000000000000000008152600401620000bc9062000500565b60405180910390fd5b8160009080519060200190620000dd9291906200015b565b508060019080519060200190620000f69291906200015b565b5033600260006101000a81548173ffffffffffffffffffffffffffffffffffffffff021916908373ffffffffffffffffffffffffffffffffffffffff1602179055506000600260146101000a81548160ff021916908315150217905550505062000586565b828054620001699062000551565b90600052602060002090601f0160209004810192826200018d5760008555620001d9565b82601f10620001a857805160ff1916838001178555620001d9565b82800160010185558215620001d9579182015b82811115620001d8578251825591602001919060010190620001bb565b5b509050620001e89190620001ec565b5090565b5b8082111562000207576000816000905550600101620001ed565b5090565b6000604051905090565b600080fd5b600080fd5b600080fd5b600080fd5b6000601f19601f8301169050919050565b7f4e487b7100000000000000000000000000000000000000000000000000000000600052604160045260246000fd5b620002748262000229565b810181811067ffffffffffffffff821117156200029657620002956200023a565b5b80604052505050565b6000620002ab6200020b565b9050620002b9828262000269565b919050565b600067ffffffffffffffff821115620002dc57620002db6200023a565b5b620002e78262000229565b9050602081019050919050565b60005b8381101562000314578082015181840152602081019050620002f7565b8381111562000324576000848401525b50505050565b6000620003416200033b84620002be565b6200029f565b90508281526020810184848401111562000360576200035f62000224565b5b6200036d848285620002f4565b509392505050565b600082601f8301126200038d576200038c6200021f565b5b81516200039f8482602086016200032a565b91505092915050565b60008060408385031215620003c257620003c162000215565b5b600083015167ffffffffffffffff811115620003e357620003e26200021a565b5b620003f18582860162000375565b925050602083015167ffffffffffffffff8111156200041557620004146200021a565b5b620004238582860162000375565b9150509250929050565b600082825260208201905092915050565b7f5469746c652063616e6e6f7420626520656d7074790000000000000000000000600082015250565b6000620004766015836200042d565b915062000483826200043e565b602082019050919050565b60006020820190508181036000830152620004a98162000467565b9050919050565b7f4465736372697074696f6e2063616e6e6f7420626520656d7074790000000000600082015250565b6000620004e8601b836200042d565b9150620004f582620004b0565b602082019050919050565b600060208201905081810360008301526200051b81620004d9565b9050919050565b7f4e487b7100000000000000000000000000000000000000000000000000000000600052602260045260246000fd5b600060028204905060018216806200056a57607f821691505b60208210810362000580576200057f62000522565b5b50919050565b610b5680620005966000396000f3fe608060405234801561001057600080fd5b506004361061009e5760003560e01c80634b9f5c98116100665780634b9f5c9814610137578063725783db146101535780637284e41614610176578063b5b47f4214610194578063fb286c65146101b25761009e565b806302d05d3f146100a357806309eef43e146100c157806331a38c89146100f1578063373058b81461010f5780634a79d50c14610119575b600080fd5b6100ab6101d0565b6040516100b891906106e5565b60405180910390f35b6100db60048036038101906100d69190610731565b6101f6565b6040516100e89190610779565b60405180910390f35b6100f9610216565b6040516101069190610779565b60405180910390f35b610117610229565b005b610121610296565b60405161012e919061082d565b60405180910390f35b610151600480360381019061014c919061087b565b610324565b005b61015b610498565b60405161016d969594939291906108c1565b60405180910390f35b61017e61060a565b60405161018b919061082d565b60405180910390f35b61019c610698565b6040516101a99190610930565b60405180910390f35b6101ba61069e565b6040516101c79190610930565b60405180910390f35b600260009054906101000a900473ffffffffffffffffffffffffffffffffffffffff1681565b60056020528060005260406000206000915054906101000a900460ff1681565b600260149054906101000a900460ff1681565b600260149054906101000a900460ff1615610279576040517f08c379a0000000000000000000000000000000000000000000000000000000008152600401610270906109bd565b60405180910390fd5b6001600260146101000a81548160ff021916908315150217905550565b600080546102a390610a0c565b80601f01602080910402602001604051908101604052809291908181526020018280546102cf90610a0c565b801561031c5780601f106102f15761010080835404028352916020019161031c565b820191906000526020600020905b8154815290600101906020018083116102ff57829003601f168201915b505050505081565b600260149054906101000a900460ff1615610374576040517f08c379a000000000000000000000000000000000000000000000000000000000815260040161036b906109bd565b60405180910390fd5b600560003373ffffffffffffffffffffffffffffffffffffffff1673ffffffffffffffffffffffffffffffffffffffff16815260200190815260200160002060009054906101000a900460ff1615610401576040517f08c379a00000000000000000000000000000000000000000000000000000000081526004016103f890610a89565b60405180910390fd5b8015610424576003600081548092919061041a90610ad8565b919050555061043d565b6004600081548092919061043790610ad8565b91905055505b6001600560003373ffffffffffffffffffffffffffffffffffffffff1673ffffffffffffffffffffffffffffffffffffffff16815260200190815260200160002060006101000a81548160ff02191690831515021790555050565b60608060008060008060006001600260009054906101000a900473ffffffffffffffffffffffffffffffffffffffff16600260149054906101000a900460ff166003546004548580546104ea90610a0c565b80601f016020809104026020016040519081016040528092919081815260200182805461051690610a0c565b80156105635780601f1061053857610100808354040283529160200191610563565b820191906000526020600020905b81548152906001019060200180831161054657829003601f168201915b5050505050955084805461057690610a0c565b80601f01602080910402602001604051908101604052809291908181526020018280546105a290610a0c565b80156105ef5780601f106105c4576101008083540402835291602001916105ef565b820191906000526020600020905b8154815290600101906020018083116105d257829003601f168201915b50505050509450955095509550955095509550909192939495565b6001805461061790610a0c565b80601f016020809104026020016040519081016040528092919081815260200182805461064390610a0c565b80156106905780601f1061066557610100808354040283529160200191610690565b820191906000526020600020905b81548152906001019060200180831161067357829003601f168201915b505050505081565b60045481565b60035481565b600073ffffffffffffffffffffffffffffffffffffffff82169050919050565b60006106cf826106a4565b9050919050565b6106df816106c4565b82525050565b60006020820190506106fa60008301846106d6565b92915050565b600080fd5b61070e816106c4565b811461071957600080fd5b50565b60008135905061072b81610705565b92915050565b60006020828403121561074757610746610700565b5b60006107558482850161071c565b91505092915050565b60008115159050919050565b6107738161075e565b82525050565b600060208201905061078e600083018461076a565b92915050565b600081519050919050565b600082825260208201905092915050565b60005b838110156107ce5780820151818401526020810190506107b3565b838111156107dd576000848401525b50505050565b6000601f19601f8301169050919050565b60006107ff82610794565b610809818561079f565b93506108198185602086016107b0565b610822816107e3565b840191505092915050565b6000602082019050818103600083015261084781846107f4565b905092915050565b6108588161075e565b811461086357600080fd5b50565b6000813590506108758161084f565b92915050565b60006020828403121561089157610890610700565b5b600061089f84828501610866565b91505092915050565b6000819050919050565b6108bb816108a8565b82525050565b600060c08201905081810360008301526108db81896107f4565b905081810360208301526108ef81886107f4565b90506108fe60408301876106d6565b61090b606083018661076a565b61091860808301856108b2565b61092560a08301846108b2565b979650505050505050565b600060208201905061094560008301846108b2565b92915050565b7f50726f706f73616c2068617320616c7265616479206265656e2065786563757460008201527f6564000000000000000000000000000000000000000000000000000000000000602082015250565b60006109a760228361079f565b91506109b28261094b565b604082019050919050565b600060208201905081810360008301526109d68161099a565b9050919050565b7f4e487b7100000000000000000000000000000000000000000000000000000000600052602260045260246000fd5b60006002820490506001821680610a2457607f821691505b602082108103610a3757610a366109dd565b5b50919050565b7f596f75206861766520616c726561647920766f74656400000000000000000000600082015250565b6000610a7360168361079f565b9150610a7e82610a3d565b602082019050919050565b60006020820190508181036000830152610aa281610a66565b9050919050565b7f4e487b7100000000000000000000000000000000000000000000000000000000600052601160045260246000fd5b6000610ae3826108a8565b91507fffffffffffffffffffffffffffffffffffffffffffffffffffffffffffffffff8203610b1557610b14610aa9565b5b60018201905091905056fea264697066735822122065132bc6be702326159004b23b397bcba5ba569f844db790072b336d63bdd20364736f6c634300080d0033",
  "immutableReferences": {},
  "source": "// Proposal.sol\npragma solidity ^0.8.0;\n\ncontract Proposal {\n    string public title;\n    string public description;\n    address public creator;\n    bool public executed;\n    uint256 public yesVotes;\n    uint256 public noVotes;\n    mapping(address => bool) public hasVoted;\n\n    constructor(string memory _title, string memory _description) public {\n        require(bytes(_title).length > 0, \"Title cannot be empty\");\n        require(bytes(_description).length > 0, \"Description cannot be empty\");\n\n        title = _title;\n        description = _description;\n        creator = msg.sender;\n        executed = false;\n    }\n\n    function vote(bool _voteYes) public {\n        require(!executed, \"Proposal has already been executed\");\n        require(!hasVoted[msg.sender], \"You have already voted\");\n\n        if (_voteYes) {\n            yesVotes++;\n        } else {\n            noVotes++;\n        }\n\n        hasVoted[msg.sender] = true;\n    }\n\n    function executeProposal() public {\n        require(!executed, \"Proposal has already been executed\");\n        executed = true;\n    }\n\n    function getProposalData()\n        public\n        view\n        returns (string memory, string memory, address, bool, uint256, uint256)\n    {\n        return (title, description, creator, executed, yesVotes, noVotes);\n    }\n}\n",
  "sourcePath": "C:\\Users\\amiro\\Documents\\Repos\\DAO Voting Platform\\Decentralized-Autonomous-Organization-DAO-Voting-Platform\\dao-voting-contracts\\contracts\\Proposal.sol",
  "compiler": {
    "name": "solc",
    "version": "0.8.13+commit.abaa5c0e.Emscripten.clang"
  },
  "schemaVersion": "3.4.16",
  "updatedAt": "2023-11-13T16:26:29.877Z",
  "networkType": "ethereum",
  "devdoc": {
    "kind": "dev",
    "methods": {},
    "version": 1
  },
  "userdoc": {
    "kind": "user",
    "methods": {},
    "version": 1
  }
}