{
  "contractName": "User",
  "abi": [
    {
      "inputs": [
        {
          "internalType": "string",
          "name": "",
          "type": "string"
        }
      ],
      "name": "usernameExists",
      "outputs": [
        {
          "internalType": "bool",
          "name": "",
          "type": "bool"
        }
      ],
      "stateMutability": "view",
      "type": "function",
      "constant": true
    },
    {
      "inputs": [
        {
          "internalType": "address",
          "name": "",
          "type": "address"
        }
      ],
      "name": "users",
      "outputs": [
        {
          "internalType": "string",
          "name": "username",
          "type": "string"
        },
        {
          "internalType": "bool",
          "name": "hasVoted",
          "type": "bool"
        }
      ],
      "stateMutability": "view",
      "type": "function",
      "constant": true
    },
    {
      "inputs": [
        {
          "internalType": "string",
          "name": "_username",
          "type": "string"
        }
      ],
      "name": "registerUser",
      "outputs": [],
      "stateMutability": "nonpayable",
      "type": "function"
    },
    {
      "inputs": [],
      "name": "markVoted",
      "outputs": [],
      "stateMutability": "nonpayable",
      "type": "function"
    }
  ],
  "bytecode": "0x608060405234801561001057600080fd5b50610973806100206000396000f3fe608060405234801561001057600080fd5b506004361061004c5760003560e01c8063704f1b94146100515780638ebd0a4c1461006d578063a87430ba14610077578063f309e3f9146100a8575b600080fd5b61006b600480360381019061006691906105f0565b6100d8565b005b610075610213565b005b610091600480360381019061008c9190610697565b610304565b60405161009f929190610767565b60405180910390f35b6100c260048036038101906100bd91906105f0565b6103bd565b6040516100cf9190610797565b60405180910390f35b6001816040516100e891906107ee565b908152602001604051809103902060009054906101000a900460ff1615610144576040517f08c379a000000000000000000000000000000000000000000000000000000000815260040161013b90610851565b60405180910390fd5b6040518060400160405280828152602001600015158152506000803373ffffffffffffffffffffffffffffffffffffffff1673ffffffffffffffffffffffffffffffffffffffff16815260200190815260200160002060008201518160000190805190602001906101b69291906103f3565b5060208201518160010160006101000a81548160ff021916908315150217905550905050600180826040516101eb91906107ee565b908152602001604051809103902060006101000a81548160ff02191690831515021790555050565b600015156000803373ffffffffffffffffffffffffffffffffffffffff1673ffffffffffffffffffffffffffffffffffffffff16815260200190815260200160002060010160009054906101000a900460ff161515146102a8576040517f08c379a000000000000000000000000000000000000000000000000000000000815260040161029f906108bd565b60405180910390fd5b60016000803373ffffffffffffffffffffffffffffffffffffffff1673ffffffffffffffffffffffffffffffffffffffff16815260200190815260200160002060010160006101000a81548160ff021916908315150217905550565b60006020528060005260406000206000915090508060000180546103279061090c565b80601f01602080910402602001604051908101604052809291908181526020018280546103539061090c565b80156103a05780601f10610375576101008083540402835291602001916103a0565b820191906000526020600020905b81548152906001019060200180831161038357829003601f168201915b5050505050908060010160009054906101000a900460ff16905082565b6001818051602081018201805184825260208301602085012081835280955050505050506000915054906101000a900460ff1681565b8280546103ff9061090c565b90600052602060002090601f0160209004810192826104215760008555610468565b82601f1061043a57805160ff1916838001178555610468565b82800160010185558215610468579182015b8281111561046757825182559160200191906001019061044c565b5b5090506104759190610479565b5090565b5b8082111561049257600081600090555060010161047a565b5090565b6000604051905090565b600080fd5b600080fd5b600080fd5b600080fd5b6000601f19601f8301169050919050565b7f4e487b7100000000000000000000000000000000000000000000000000000000600052604160045260246000fd5b6104fd826104b4565b810181811067ffffffffffffffff8211171561051c5761051b6104c5565b5b80604052505050565b600061052f610496565b905061053b82826104f4565b919050565b600067ffffffffffffffff82111561055b5761055a6104c5565b5b610564826104b4565b9050602081019050919050565b82818337600083830152505050565b600061059361058e84610540565b610525565b9050828152602081018484840111156105af576105ae6104af565b5b6105ba848285610571565b509392505050565b600082601f8301126105d7576105d66104aa565b5b81356105e7848260208601610580565b91505092915050565b600060208284031215610606576106056104a0565b5b600082013567ffffffffffffffff811115610624576106236104a5565b5b610630848285016105c2565b91505092915050565b600073ffffffffffffffffffffffffffffffffffffffff82169050919050565b600061066482610639565b9050919050565b61067481610659565b811461067f57600080fd5b50565b6000813590506106918161066b565b92915050565b6000602082840312156106ad576106ac6104a0565b5b60006106bb84828501610682565b91505092915050565b600081519050919050565b600082825260208201905092915050565b60005b838110156106fe5780820151818401526020810190506106e3565b8381111561070d576000848401525b50505050565b600061071e826106c4565b61072881856106cf565b93506107388185602086016106e0565b610741816104b4565b840191505092915050565b60008115159050919050565b6107618161074c565b82525050565b600060408201905081810360008301526107818185610713565b90506107906020830184610758565b9392505050565b60006020820190506107ac6000830184610758565b92915050565b600081905092915050565b60006107c8826106c4565b6107d281856107b2565b93506107e28185602086016106e0565b80840191505092915050565b60006107fa82846107bd565b915081905092915050565b7f5573657220616c72656164792072656769737465726564000000000000000000600082015250565b600061083b6017836106cf565b915061084682610805565b602082019050919050565b6000602082019050818103600083015261086a8161082e565b9050919050565b7f557365722068617320616c726561647920766f74656400000000000000000000600082015250565b60006108a76016836106cf565b91506108b282610871565b602082019050919050565b600060208201905081810360008301526108d68161089a565b9050919050565b7f4e487b7100000000000000000000000000000000000000000000000000000000600052602260045260246000fd5b6000600282049050600182168061092457607f821691505b602082108103610937576109366108dd565b5b5091905056fea2646970667358221220ebdffa6e54f11b64fb0bddf6b6f61bb5fcf96e44f8729260dde8b52dc060fd2564736f6c634300080d0033",
  "immutableReferences": {},
  "source": "// SPDX-License-Identifier: MIT\npragma solidity >=0.4.22 <0.9.0;\n\ncontract User {\n    struct UserInfo {\n        string username;\n        bool hasVoted;\n    }\n\n    mapping(address => UserInfo) public users;\n    mapping(string => bool) public usernameExists;\n\n    function registerUser(string memory _username) public {\n        require(!usernameExists[_username], \"User already registered\");\n        users[msg.sender] = UserInfo(_username, false);\n        usernameExists[_username] = true;\n    }\n\n    function markVoted() public {\n        require(users[msg.sender].hasVoted == false, \"User has already voted\");\n        users[msg.sender].hasVoted = true;\n    }\n}\n",
  "sourcePath": "C:\\Users\\amiro\\Documents\\Repos\\DAO Voting Platform\\Decentralized-Autonomous-Organization-DAO-Voting-Platform\\dao-voting-contracts\\contracts\\User.sol",
  "compiler": {
    "name": "solc",
    "version": "0.8.13+commit.abaa5c0e.Emscripten.clang"
  },
  "schemaVersion": "3.4.16",
  "updatedAt": "2023-11-13T16:27:01.571Z",
  "networkType": "ethereum",
  "devdoc": {
    "kind": "dev",
    "methods": {},
    "version": 1
  },
  "userdoc": {
    "kind": "user",
    "methods": {},
    "version": 1
  }
}